{
  "contractName": "RFT",
  "abi": [
    {
      "inputs": [
        {
          "internalType": "string",
          "name": "_name",
          "type": "string"
        },
        {
          "internalType": "string",
          "name": "_symbol",
          "type": "string"
        },
        {
          "internalType": "address",
          "name": "_nftAddress",
          "type": "address"
        },
        {
          "internalType": "uint256",
          "name": "_nftId",
          "type": "uint256"
        },
        {
          "internalType": "uint256",
          "name": "_icoSharePrice",
          "type": "uint256"
        },
        {
          "internalType": "uint256",
          "name": "_icoShareSupply",
          "type": "uint256"
        },
        {
          "internalType": "address",
          "name": "_daiAddress",
          "type": "address"
        }
      ],
      "stateMutability": "nonpayable",
      "type": "constructor"
    },
    {
      "anonymous": false,
      "inputs": [
        {
          "indexed": true,
          "internalType": "address",
          "name": "owner",
          "type": "address"
        },
        {
          "indexed": true,
          "internalType": "address",
          "name": "spender",
          "type": "address"
        },
        {
          "indexed": false,
          "internalType": "uint256",
          "name": "value",
          "type": "uint256"
        }
      ],
      "name": "Approval",
      "type": "event"
    },
    {
      "anonymous": false,
      "inputs": [
        {
          "indexed": true,
          "internalType": "address",
          "name": "from",
          "type": "address"
        },
        {
          "indexed": true,
          "internalType": "address",
          "name": "to",
          "type": "address"
        },
        {
          "indexed": false,
          "internalType": "uint256",
          "name": "value",
          "type": "uint256"
        }
      ],
      "name": "Transfer",
      "type": "event"
    },
    {
      "inputs": [],
      "name": "admin",
      "outputs": [
        {
          "internalType": "address",
          "name": "",
          "type": "address"
        }
      ],
      "stateMutability": "view",
      "type": "function"
    },
    {
      "inputs": [
        {
          "internalType": "address",
          "name": "owner",
          "type": "address"
        },
        {
          "internalType": "address",
          "name": "spender",
          "type": "address"
        }
      ],
      "name": "allowance",
      "outputs": [
        {
          "internalType": "uint256",
          "name": "",
          "type": "uint256"
        }
      ],
      "stateMutability": "view",
      "type": "function"
    },
    {
      "inputs": [
        {
          "internalType": "address",
          "name": "spender",
          "type": "address"
        },
        {
          "internalType": "uint256",
          "name": "amount",
          "type": "uint256"
        }
      ],
      "name": "approve",
      "outputs": [
        {
          "internalType": "bool",
          "name": "",
          "type": "bool"
        }
      ],
      "stateMutability": "nonpayable",
      "type": "function"
    },
    {
      "inputs": [
        {
          "internalType": "address",
          "name": "account",
          "type": "address"
        }
      ],
      "name": "balanceOf",
      "outputs": [
        {
          "internalType": "uint256",
          "name": "",
          "type": "uint256"
        }
      ],
      "stateMutability": "view",
      "type": "function"
    },
    {
      "inputs": [],
      "name": "dai",
      "outputs": [
        {
          "internalType": "contract IERC20",
          "name": "",
          "type": "address"
        }
      ],
      "stateMutability": "view",
      "type": "function"
    },
    {
      "inputs": [],
      "name": "decimals",
      "outputs": [
        {
          "internalType": "uint8",
          "name": "",
          "type": "uint8"
        }
      ],
      "stateMutability": "view",
      "type": "function"
    },
    {
      "inputs": [
        {
          "internalType": "address",
          "name": "spender",
          "type": "address"
        },
        {
          "internalType": "uint256",
          "name": "subtractedValue",
          "type": "uint256"
        }
      ],
      "name": "decreaseAllowance",
      "outputs": [
        {
          "internalType": "bool",
          "name": "",
          "type": "bool"
        }
      ],
      "stateMutability": "nonpayable",
      "type": "function"
    },
    {
      "inputs": [],
      "name": "icoEnd",
      "outputs": [
        {
          "internalType": "uint256",
          "name": "",
          "type": "uint256"
        }
      ],
      "stateMutability": "view",
      "type": "function"
    },
    {
      "inputs": [],
      "name": "icoSharePrice",
      "outputs": [
        {
          "internalType": "uint256",
          "name": "",
          "type": "uint256"
        }
      ],
      "stateMutability": "view",
      "type": "function"
    },
    {
      "inputs": [],
      "name": "icoShareSupply",
      "outputs": [
        {
          "internalType": "uint256",
          "name": "",
          "type": "uint256"
        }
      ],
      "stateMutability": "view",
      "type": "function"
    },
    {
      "inputs": [
        {
          "internalType": "address",
          "name": "spender",
          "type": "address"
        },
        {
          "internalType": "uint256",
          "name": "addedValue",
          "type": "uint256"
        }
      ],
      "name": "increaseAllowance",
      "outputs": [
        {
          "internalType": "bool",
          "name": "",
          "type": "bool"
        }
      ],
      "stateMutability": "nonpayable",
      "type": "function"
    },
    {
      "inputs": [],
      "name": "name",
      "outputs": [
        {
          "internalType": "string",
          "name": "",
          "type": "string"
        }
      ],
      "stateMutability": "view",
      "type": "function"
    },
    {
      "inputs": [],
      "name": "nft",
      "outputs": [
        {
          "internalType": "contract IERC721",
          "name": "",
          "type": "address"
        }
      ],
      "stateMutability": "view",
      "type": "function"
    },
    {
      "inputs": [],
      "name": "nftId",
      "outputs": [
        {
          "internalType": "uint256",
          "name": "",
          "type": "uint256"
        }
      ],
      "stateMutability": "view",
      "type": "function"
    },
    {
      "inputs": [],
      "name": "symbol",
      "outputs": [
        {
          "internalType": "string",
          "name": "",
          "type": "string"
        }
      ],
      "stateMutability": "view",
      "type": "function"
    },
    {
      "inputs": [],
      "name": "totalSupply",
      "outputs": [
        {
          "internalType": "uint256",
          "name": "",
          "type": "uint256"
        }
      ],
      "stateMutability": "view",
      "type": "function"
    },
    {
      "inputs": [
        {
          "internalType": "address",
          "name": "recipient",
          "type": "address"
        },
        {
          "internalType": "uint256",
          "name": "amount",
          "type": "uint256"
        }
      ],
      "name": "transfer",
      "outputs": [
        {
          "internalType": "bool",
          "name": "",
          "type": "bool"
        }
      ],
      "stateMutability": "nonpayable",
      "type": "function"
    },
    {
      "inputs": [
        {
          "internalType": "address",
          "name": "sender",
          "type": "address"
        },
        {
          "internalType": "address",
          "name": "recipient",
          "type": "address"
        },
        {
          "internalType": "uint256",
          "name": "amount",
          "type": "uint256"
        }
      ],
      "name": "transferFrom",
      "outputs": [
        {
          "internalType": "bool",
          "name": "",
          "type": "bool"
        }
      ],
      "stateMutability": "nonpayable",
      "type": "function"
    },
    {
      "inputs": [],
      "name": "startIco",
      "outputs": [],
      "stateMutability": "nonpayable",
      "type": "function"
    },
    {
      "inputs": [
        {
          "internalType": "uint256",
          "name": "shareAmount",
          "type": "uint256"
        }
      ],
      "name": "buyShare",
      "outputs": [],
      "stateMutability": "nonpayable",
      "type": "function"
    },
    {
      "inputs": [],
      "name": "withdrawProfits",
      "outputs": [],
      "stateMutability": "nonpayable",
      "type": "function"
    }
  ],
  "bytecode": "0x60806040523480156200001157600080fd5b506040516200263e3803806200263e8339818101604052810190620000379190620002a2565b868681600390805190602001906200005192919062000152565b5080600490805190602001906200006a92919062000152565b5050508360088190555084600960006101000a81548173ffffffffffffffffffffffffffffffffffffffff021916908373ffffffffffffffffffffffffffffffffffffffff160217905550826005819055508160068190555080600a60006101000a81548173ffffffffffffffffffffffffffffffffffffffff021916908373ffffffffffffffffffffffffffffffffffffffff16021790555033600b60006101000a81548173ffffffffffffffffffffffffffffffffffffffff021916908373ffffffffffffffffffffffffffffffffffffffff1602179055505050505050505062000524565b82805462000160906200045c565b90600052602060002090601f016020900481019282620001845760008555620001d0565b82601f106200019f57805160ff1916838001178555620001d0565b82800160010185558215620001d0579182015b82811115620001cf578251825591602001919060010190620001b2565b5b509050620001df9190620001e3565b5090565b5b80821115620001fe576000816000905550600101620001e4565b5090565b6000620002196200021384620003b5565b62000381565b9050828152602081018484840111156200023257600080fd5b6200023f84828562000426565b509392505050565b6000815190506200025881620004f0565b92915050565b600082601f8301126200027057600080fd5b81516200028284826020860162000202565b91505092915050565b6000815190506200029c816200050a565b92915050565b600080600080600080600060e0888a031215620002be57600080fd5b600088015167ffffffffffffffff811115620002d957600080fd5b620002e78a828b016200025e565b975050602088015167ffffffffffffffff8111156200030557600080fd5b620003138a828b016200025e565b9650506040620003268a828b0162000247565b9550506060620003398a828b016200028b565b94505060806200034c8a828b016200028b565b93505060a06200035f8a828b016200028b565b92505060c0620003728a828b0162000247565b91505092959891949750929550565b6000604051905081810181811067ffffffffffffffff82111715620003ab57620003aa620004c1565b5b8060405250919050565b600067ffffffffffffffff821115620003d357620003d2620004c1565b5b601f19601f8301169050602081019050919050565b6000620003f582620003fc565b9050919050565b600073ffffffffffffffffffffffffffffffffffffffff82169050919050565b6000819050919050565b60005b838110156200044657808201518184015260208101905062000429565b8381111562000456576000848401525b50505050565b600060028204905060018216806200047557607f821691505b602082108114156200048c576200048b62000492565b5b50919050565b7f4e487b7100000000000000000000000000000000000000000000000000000000600052602260045260246000fd5b7f4e487b7100000000000000000000000000000000000000000000000000000000600052604160045260246000fd5b620004fb81620003e8565b81146200050757600080fd5b50565b62000515816200041c565b81146200052157600080fd5b50565b61210a80620005346000396000f3fe608060405234801561001057600080fd5b50600436106101375760003560e01c806370a08231116100b8578063a9ed6e9a1161007c578063a9ed6e9a14610342578063c6bc51821461035e578063dd62ed3e1461037c578063f4b9fa75146103ac578063f851a440146103ca578063ff83ab29146103e857610137565b806370a082311461028a57806389311e6f146102ba57806395d89b41146102c4578063a457c2d7146102e2578063a9059cbb1461031257610137565b8063313ce567116100ff578063313ce567146101f6578063395093511461021457806339913e091461024457806347ccca021461024e57806357b6e9661461026c57610137565b80630563451a1461013c57806306fdde031461015a578063095ea7b31461017857806318160ddd146101a857806323b872dd146101c6575b600080fd5b610144610406565b6040516101519190611de8565b60405180910390f35b61016261040c565b60405161016f9190611c26565b60405180910390f35b610192600480360381019061018d91906115c6565b61049e565b60405161019f9190611bd5565b60405180910390f35b6101b06104bc565b6040516101bd9190611de8565b60405180910390f35b6101e060048036038101906101db9190611577565b6104c6565b6040516101ed9190611bd5565b60405180910390f35b6101fe6105be565b60405161020b9190611e03565b60405180910390f35b61022e600480360381019061022991906115c6565b6105c7565b60405161023b9190611bd5565b60405180910390f35b61024c610673565b005b610256610925565b6040516102639190611c0b565b60405180910390f35b61027461094b565b6040516102819190611de8565b60405180910390f35b6102a4600480360381019061029f9190611512565b610951565b6040516102b19190611de8565b60405180910390f35b6102c2610999565b005b6102cc610ad3565b6040516102d99190611c26565b60405180910390f35b6102fc60048036038101906102f791906115c6565b610b65565b6040516103099190611bd5565b60405180910390f35b61032c600480360381019061032791906115c6565b610c50565b6040516103399190611bd5565b60405180910390f35b61035c6004803603810190610357919061162b565b610c6e565b005b610366610e21565b6040516103739190611de8565b60405180910390f35b6103966004803603810190610391919061153b565b610e27565b6040516103a39190611de8565b60405180910390f35b6103b4610eae565b6040516103c19190611bf0565b60405180910390f35b6103d2610ed4565b6040516103df9190611b5a565b60405180910390f35b6103f0610efa565b6040516103fd9190611de8565b60405180910390f35b60075481565b60606003805461041b90611fee565b80601f016020809104026020016040519081016040528092919081815260200182805461044790611fee565b80156104945780601f1061046957610100808354040283529160200191610494565b820191906000526020600020905b81548152906001019060200180831161047757829003601f168201915b5050505050905090565b60006104b26104ab610f00565b8484610f08565b6001905092915050565b6000600254905090565b60006104d38484846110d3565b6000600160008673ffffffffffffffffffffffffffffffffffffffff1673ffffffffffffffffffffffffffffffffffffffff168152602001908152602001600020600061051e610f00565b73ffffffffffffffffffffffffffffffffffffffff1673ffffffffffffffffffffffffffffffffffffffff1681526020019081526020016000205490508281101561059e576040517f08c379a000000000000000000000000000000000000000000000000000000000815260040161059590611d08565b60405180910390fd5b6105b2856105aa610f00565b858403610f08565b60019150509392505050565b60006012905090565b60006106696105d4610f00565b8484600160006105e2610f00565b73ffffffffffffffffffffffffffffffffffffffff1673ffffffffffffffffffffffffffffffffffffffff16815260200190815260200160002060008873ffffffffffffffffffffffffffffffffffffffff1673ffffffffffffffffffffffffffffffffffffffff168152602001908152602001600020546106649190611e3a565b610f08565b6001905092915050565b600b60009054906101000a900473ffffffffffffffffffffffffffffffffffffffff1673ffffffffffffffffffffffffffffffffffffffff163373ffffffffffffffffffffffffffffffffffffffff1614610703576040517f08c379a00000000000000000000000000000000000000000000000000000000081526004016106fa90611cc8565b60405180910390fd5b6007544211610747576040517f08c379a000000000000000000000000000000000000000000000000000000000815260040161073e90611ce8565b60405180910390fd5b6000600a60009054906101000a900473ffffffffffffffffffffffffffffffffffffffff1673ffffffffffffffffffffffffffffffffffffffff166370a08231306040518263ffffffff1660e01b81526004016107a49190611b5a565b60206040518083038186803b1580156107bc57600080fd5b505afa1580156107d0573d6000803e3d6000fd5b505050506040513d601f19601f820116820180604052508101906107f49190611654565b905060008111156108d257600a60009054906101000a900473ffffffffffffffffffffffffffffffffffffffff1673ffffffffffffffffffffffffffffffffffffffff1663a9059cbb600b60009054906101000a900473ffffffffffffffffffffffffffffffffffffffff16836040518363ffffffff1660e01b815260040161087e929190611bac565b602060405180830381600087803b15801561089857600080fd5b505af11580156108ac573d6000803e3d6000fd5b505050506040513d601f19601f820116820180604052508101906108d09190611602565b505b60006108dc6104bc565b6006546108e99190611eea565b9050600081111561092157610920600b60009054906101000a900473ffffffffffffffffffffffffffffffffffffffff1682611354565b5b5050565b600960009054906101000a900473ffffffffffffffffffffffffffffffffffffffff1681565b60055481565b60008060008373ffffffffffffffffffffffffffffffffffffffff1673ffffffffffffffffffffffffffffffffffffffff168152602001908152602001600020549050919050565b600b60009054906101000a900473ffffffffffffffffffffffffffffffffffffffff1673ffffffffffffffffffffffffffffffffffffffff163373ffffffffffffffffffffffffffffffffffffffff1614610a29576040517f08c379a0000000000000000000000000000000000000000000000000000000008152600401610a2090611cc8565b60405180910390fd5b600960009054906101000a900473ffffffffffffffffffffffffffffffffffffffff1673ffffffffffffffffffffffffffffffffffffffff166323b872dd33306008546040518463ffffffff1660e01b8152600401610a8a93929190611b75565b600060405180830381600087803b158015610aa457600080fd5b505af1158015610ab8573d6000803e3d6000fd5b5050505062093a8042610acb9190611e3a565b600781905550565b606060048054610ae290611fee565b80601f0160208091040260200160405190810160405280929190818152602001828054610b0e90611fee565b8015610b5b5780601f10610b3057610100808354040283529160200191610b5b565b820191906000526020600020905b815481529060010190602001808311610b3e57829003601f168201915b5050505050905090565b60008060016000610b74610f00565b73ffffffffffffffffffffffffffffffffffffffff1673ffffffffffffffffffffffffffffffffffffffff16815260200190815260200160002060008573ffffffffffffffffffffffffffffffffffffffff1673ffffffffffffffffffffffffffffffffffffffff16815260200190815260200160002054905082811015610c31576040517f08c379a0000000000000000000000000000000000000000000000000000000008152600401610c2890611da8565b60405180910390fd5b610c45610c3c610f00565b85858403610f08565b600191505092915050565b6000610c64610c5d610f00565b84846110d3565b6001905092915050565b600060075411610cb3576040517f08c379a0000000000000000000000000000000000000000000000000000000008152600401610caa90611d68565b60405180910390fd5b600754421115610cf8576040517f08c379a0000000000000000000000000000000000000000000000000000000008152600401610cef90611c68565b60405180910390fd5b60065481610d046104bc565b610d0e9190611e3a565b1115610d4f576040517f08c379a0000000000000000000000000000000000000000000000000000000008152600401610d4690611d88565b60405180910390fd5b600060055482610d5f9190611e90565b9050600a60009054906101000a900473ffffffffffffffffffffffffffffffffffffffff1673ffffffffffffffffffffffffffffffffffffffff166323b872dd3330846040518463ffffffff1660e01b8152600401610dc093929190611b75565b602060405180830381600087803b158015610dda57600080fd5b505af1158015610dee573d6000803e3d6000fd5b505050506040513d601f19601f82011682018060405250810190610e129190611602565b50610e1d3383611354565b5050565b60085481565b6000600160008473ffffffffffffffffffffffffffffffffffffffff1673ffffffffffffffffffffffffffffffffffffffff16815260200190815260200160002060008373ffffffffffffffffffffffffffffffffffffffff1673ffffffffffffffffffffffffffffffffffffffff16815260200190815260200160002054905092915050565b600a60009054906101000a900473ffffffffffffffffffffffffffffffffffffffff1681565b600b60009054906101000a900473ffffffffffffffffffffffffffffffffffffffff1681565b60065481565b600033905090565b600073ffffffffffffffffffffffffffffffffffffffff168373ffffffffffffffffffffffffffffffffffffffff161415610f78576040517f08c379a0000000000000000000000000000000000000000000000000000000008152600401610f6f90611d48565b60405180910390fd5b600073ffffffffffffffffffffffffffffffffffffffff168273ffffffffffffffffffffffffffffffffffffffff161415610fe8576040517f08c379a0000000000000000000000000000000000000000000000000000000008152600401610fdf90611c88565b60405180910390fd5b80600160008573ffffffffffffffffffffffffffffffffffffffff1673ffffffffffffffffffffffffffffffffffffffff16815260200190815260200160002060008473ffffffffffffffffffffffffffffffffffffffff1673ffffffffffffffffffffffffffffffffffffffff168152602001908152602001600020819055508173ffffffffffffffffffffffffffffffffffffffff168373ffffffffffffffffffffffffffffffffffffffff167f8c5be1e5ebec7d5bd14f71427d1e84f3dd0314c0f7b2291e5b200ac8c7c3b925836040516110c69190611de8565b60405180910390a3505050565b600073ffffffffffffffffffffffffffffffffffffffff168373ffffffffffffffffffffffffffffffffffffffff161415611143576040517f08c379a000000000000000000000000000000000000000000000000000000000815260040161113a90611d28565b60405180910390fd5b600073ffffffffffffffffffffffffffffffffffffffff168273ffffffffffffffffffffffffffffffffffffffff1614156111b3576040517f08c379a00000000000000000000000000000000000000000000000000000000081526004016111aa90611c48565b60405180910390fd5b6111be8383836114b4565b60008060008573ffffffffffffffffffffffffffffffffffffffff1673ffffffffffffffffffffffffffffffffffffffff16815260200190815260200160002054905081811015611244576040517f08c379a000000000000000000000000000000000000000000000000000000000815260040161123b90611ca8565b60405180910390fd5b8181036000808673ffffffffffffffffffffffffffffffffffffffff1673ffffffffffffffffffffffffffffffffffffffff16815260200190815260200160002081905550816000808573ffffffffffffffffffffffffffffffffffffffff1673ffffffffffffffffffffffffffffffffffffffff16815260200190815260200160002060008282546112d79190611e3a565b925050819055508273ffffffffffffffffffffffffffffffffffffffff168473ffffffffffffffffffffffffffffffffffffffff167fddf252ad1be2c89b69c2b068fc378daa952ba7f163c4a11628f55a4df523b3ef8460405161133b9190611de8565b60405180910390a361134e8484846114b9565b50505050565b600073ffffffffffffffffffffffffffffffffffffffff168273ffffffffffffffffffffffffffffffffffffffff1614156113c4576040517f08c379a00000000000000000000000000000000000000000000000000000000081526004016113bb90611dc8565b60405180910390fd5b6113d0600083836114b4565b80600260008282546113e29190611e3a565b92505081905550806000808473ffffffffffffffffffffffffffffffffffffffff1673ffffffffffffffffffffffffffffffffffffffff16815260200190815260200160002060008282546114379190611e3a565b925050819055508173ffffffffffffffffffffffffffffffffffffffff16600073ffffffffffffffffffffffffffffffffffffffff167fddf252ad1be2c89b69c2b068fc378daa952ba7f163c4a11628f55a4df523b3ef8360405161149c9190611de8565b60405180910390a36114b0600083836114b9565b5050565b505050565b505050565b6000813590506114cd8161208f565b92915050565b6000815190506114e2816120a6565b92915050565b6000813590506114f7816120bd565b92915050565b60008151905061150c816120bd565b92915050565b60006020828403121561152457600080fd5b6000611532848285016114be565b91505092915050565b6000806040838503121561154e57600080fd5b600061155c858286016114be565b925050602061156d858286016114be565b9150509250929050565b60008060006060848603121561158c57600080fd5b600061159a868287016114be565b93505060206115ab868287016114be565b92505060406115bc868287016114e8565b9150509250925092565b600080604083850312156115d957600080fd5b60006115e7858286016114be565b92505060206115f8858286016114e8565b9150509250929050565b60006020828403121561161457600080fd5b6000611622848285016114d3565b91505092915050565b60006020828403121561163d57600080fd5b600061164b848285016114e8565b91505092915050565b60006020828403121561166657600080fd5b6000611674848285016114fd565b91505092915050565b61168681611f1e565b82525050565b61169581611f30565b82525050565b6116a481611f73565b82525050565b6116b381611f97565b82525050565b60006116c482611e1e565b6116ce8185611e29565b93506116de818560208601611fbb565b6116e78161207e565b840191505092915050565b60006116ff602383611e29565b91507f45524332303a207472616e7366657220746f20746865207a65726f206164647260008301527f65737300000000000000000000000000000000000000000000000000000000006020830152604082019050919050565b6000611765601083611e29565b91507f49434f206861732066696e6973686564000000000000000000000000000000006000830152602082019050919050565b60006117a5602283611e29565b91507f45524332303a20617070726f766520746f20746865207a65726f20616464726560008301527f73730000000000000000000000000000000000000000000000000000000000006020830152604082019050919050565b600061180b602683611e29565b91507f45524332303a207472616e7366657220616d6f756e742065786365656473206260008301527f616c616e636500000000000000000000000000000000000000000000000000006020830152604082019050919050565b6000611871600a83611e29565b91507f6f6e6c792061646d696e000000000000000000000000000000000000000000006000830152602082019050919050565b60006118b1601483611e29565b91507f49434f206e6f742066696e6973686564207965740000000000000000000000006000830152602082019050919050565b60006118f1602883611e29565b91507f45524332303a207472616e7366657220616d6f756e742065786365656473206160008301527f6c6c6f77616e63650000000000000000000000000000000000000000000000006020830152604082019050919050565b6000611957602583611e29565b91507f45524332303a207472616e736665722066726f6d20746865207a65726f20616460008301527f64726573730000000000000000000000000000000000000000000000000000006020830152604082019050919050565b60006119bd602483611e29565b91507f45524332303a20617070726f76652066726f6d20746865207a65726f2061646460008301527f72657373000000000000000000000000000000000000000000000000000000006020830152604082019050919050565b6000611a23601383611e29565b91507f49434f206e6f74207374617274656420796574000000000000000000000000006000830152602082019050919050565b6000611a63601683611e29565b91507f6e6f7420656e6f75676820736861726573206c656674000000000000000000006000830152602082019050919050565b6000611aa3602583611e29565b91507f45524332303a2064656372656173656420616c6c6f77616e63652062656c6f7760008301527f207a65726f0000000000000000000000000000000000000000000000000000006020830152604082019050919050565b6000611b09601f83611e29565b91507f45524332303a206d696e7420746f20746865207a65726f2061646472657373006000830152602082019050919050565b611b4581611f5c565b82525050565b611b5481611f66565b82525050565b6000602082019050611b6f600083018461167d565b92915050565b6000606082019050611b8a600083018661167d565b611b97602083018561167d565b611ba46040830184611b3c565b949350505050565b6000604082019050611bc1600083018561167d565b611bce6020830184611b3c565b9392505050565b6000602082019050611bea600083018461168c565b92915050565b6000602082019050611c05600083018461169b565b92915050565b6000602082019050611c2060008301846116aa565b92915050565b60006020820190508181036000830152611c4081846116b9565b905092915050565b60006020820190508181036000830152611c61816116f2565b9050919050565b60006020820190508181036000830152611c8181611758565b9050919050565b60006020820190508181036000830152611ca181611798565b9050919050565b60006020820190508181036000830152611cc1816117fe565b9050919050565b60006020820190508181036000830152611ce181611864565b9050919050565b60006020820190508181036000830152611d01816118a4565b9050919050565b60006020820190508181036000830152611d21816118e4565b9050919050565b60006020820190508181036000830152611d418161194a565b9050919050565b60006020820190508181036000830152611d61816119b0565b9050919050565b60006020820190508181036000830152611d8181611a16565b9050919050565b60006020820190508181036000830152611da181611a56565b9050919050565b60006020820190508181036000830152611dc181611a96565b9050919050565b60006020820190508181036000830152611de181611afc565b9050919050565b6000602082019050611dfd6000830184611b3c565b92915050565b6000602082019050611e186000830184611b4b565b92915050565b600081519050919050565b600082825260208201905092915050565b6000611e4582611f5c565b9150611e5083611f5c565b9250827fffffffffffffffffffffffffffffffffffffffffffffffffffffffffffffffff03821115611e8557611e84612020565b5b828201905092915050565b6000611e9b82611f5c565b9150611ea683611f5c565b9250817fffffffffffffffffffffffffffffffffffffffffffffffffffffffffffffffff0483118215151615611edf57611ede612020565b5b828202905092915050565b6000611ef582611f5c565b9150611f0083611f5c565b925082821015611f1357611f12612020565b5b828203905092915050565b6000611f2982611f3c565b9050919050565b60008115159050919050565b600073ffffffffffffffffffffffffffffffffffffffff82169050919050565b6000819050919050565b600060ff82169050919050565b6000611f7e82611f85565b9050919050565b6000611f9082611f3c565b9050919050565b6000611fa282611fa9565b9050919050565b6000611fb482611f3c565b9050919050565b60005b83811015611fd9578082015181840152602081019050611fbe565b83811115611fe8576000848401525b50505050565b6000600282049050600182168061200657607f821691505b6020821081141561201a5761201961204f565b5b50919050565b7f4e487b7100000000000000000000000000000000000000000000000000000000600052601160045260246000fd5b7f4e487b7100000000000000000000000000000000000000000000000000000000600052602260045260246000fd5b6000601f19601f8301169050919050565b61209881611f1e565b81146120a357600080fd5b50565b6120af81611f30565b81146120ba57600080fd5b50565b6120c681611f5c565b81146120d157600080fd5b5056fea2646970667358221220b59a6e2bbc697647eb70db5709ca225e2eafcdd5ac5e48e5a8744a801e05f3d364736f6c63430008000033",
  "immutableReferences": {},
  "source": "pragma solidity ^0.8.0;\r\n\r\nimport '@openzeppelin/contracts/token/ERC721/IERC721.sol';\r\nimport '@openzeppelin/contracts/token/ERC20/IERC20.sol';\r\nimport '@openzeppelin/contracts/token/ERC20/ERC20.sol';\r\n\r\ncontract RFT is ERC20 {\r\n    uint public icoSharePrice;\r\n    uint public icoShareSupply;\r\n    uint public icoEnd;\r\n\r\n    uint public nftId;\r\n    IERC721 public nft;\r\n    IERC20 public dai;\r\n\r\n    address public admin;\r\n\r\n    constructor(\r\n        string memory _name,\r\n        string memory _symbol,\r\n        address _nftAddress,\r\n        uint _nftId,\r\n        uint _icoSharePrice,\r\n        uint _icoShareSupply,\r\n        address _daiAddress\r\n    )\r\n    ERC20(_name, _symbol) {\r\n        nftId = _nftId;\r\n        nft = IERC721(_nftAddress);\r\n        icoSharePrice = _icoSharePrice;\r\n        icoShareSupply = _icoShareSupply;\r\n        dai = IERC20(_daiAddress);\r\n        admin = msg.sender;\r\n    }\r\n\r\n    function startIco() external {\r\n        require(msg.sender == admin, 'only admin');\r\n        nft.transferFrom(msg.sender, address(this), nftId);\r\n        icoEnd = block.timestamp + 7 * 86400;\r\n    }\r\n\r\n    function buyShare(uint shareAmount) external {\r\n        require(icoEnd > 0, 'ICO not started yet');\r\n        require(block.timestamp <= icoEnd, 'ICO has finished');\r\n        require(totalSupply() + shareAmount <= icoShareSupply, 'not enough shares left');\r\n        uint daiAmount = shareAmount * icoSharePrice;\r\n        dai.transferFrom(msg.sender, address(this), daiAmount);\r\n        _mint(msg.sender, shareAmount);\r\n    }\r\n\r\n    function withdrawProfits() external {\r\n        require(msg.sender == admin, 'only admin');\r\n        require(block.timestamp > icoEnd, 'ICO not finished yet');\r\n        uint daiBalance = dai.balanceOf(address(this));\r\n        if(daiBalance > 0) {\r\n            dai.transfer(admin, daiBalance);\r\n        }\r\n        uint unsoldShareBalance = icoShareSupply - totalSupply();\r\n        if(unsoldShareBalance > 0) {\r\n            _mint(admin, unsoldShareBalance);\r\n        }\r\n    }\r\n}",
  "sourcePath": "C:/Users/USER/BLOCKCHAIN/Truffle/rft/contracts/RFT.sol",
  "compiler": {
    "name": "solc",
    "version": "0.8.0+commit.c7dfd78e.Emscripten.clang"
  },
  "schemaVersion": "3.4.1",
  "updatedAt": "2021-08-24T13:15:03.488Z",
  "devdoc": {
    "kind": "dev",
    "methods": {
      "allowance(address,address)": {
        "details": "See {IERC20-allowance}."
      },
      "approve(address,uint256)": {
        "details": "See {IERC20-approve}. Requirements: - `spender` cannot be the zero address."
      },
      "balanceOf(address)": {
        "details": "See {IERC20-balanceOf}."
      },
      "decimals()": {
        "details": "Returns the number of decimals used to get its user representation. For example, if `decimals` equals `2`, a balance of `505` tokens should be displayed to a user as `5.05` (`505 / 10 ** 2`). Tokens usually opt for a value of 18, imitating the relationship between Ether and Wei. This is the value {ERC20} uses, unless this function is overridden; NOTE: This information is only used for _display_ purposes: it in no way affects any of the arithmetic of the contract, including {IERC20-balanceOf} and {IERC20-transfer}."
      },
      "decreaseAllowance(address,uint256)": {
        "details": "Atomically decreases the allowance granted to `spender` by the caller. This is an alternative to {approve} that can be used as a mitigation for problems described in {IERC20-approve}. Emits an {Approval} event indicating the updated allowance. Requirements: - `spender` cannot be the zero address. - `spender` must have allowance for the caller of at least `subtractedValue`."
      },
      "increaseAllowance(address,uint256)": {
        "details": "Atomically increases the allowance granted to `spender` by the caller. This is an alternative to {approve} that can be used as a mitigation for problems described in {IERC20-approve}. Emits an {Approval} event indicating the updated allowance. Requirements: - `spender` cannot be the zero address."
      },
      "name()": {
        "details": "Returns the name of the token."
      },
      "symbol()": {
        "details": "Returns the symbol of the token, usually a shorter version of the name."
      },
      "totalSupply()": {
        "details": "See {IERC20-totalSupply}."
      },
      "transfer(address,uint256)": {
        "details": "See {IERC20-transfer}. Requirements: - `recipient` cannot be the zero address. - the caller must have a balance of at least `amount`."
      },
      "transferFrom(address,address,uint256)": {
        "details": "See {IERC20-transferFrom}. Emits an {Approval} event indicating the updated allowance. This is not required by the EIP. See the note at the beginning of {ERC20}. Requirements: - `sender` and `recipient` cannot be the zero address. - `sender` must have a balance of at least `amount`. - the caller must have allowance for ``sender``'s tokens of at least `amount`."
      }
    },
    "version": 1
  },
  "userdoc": {
    "kind": "user",
    "methods": {},
    "version": 1
  }
}